S0  Power Over Ethernet 
S0  Product Number: 22 
S0  Software Number: 0211 
S0  Param Number:  19 
S0  Build:  003 
S0  File Name - 22021119_0816_003.s19 
S0  Based On File - FSL_2017_10_17_17_20.elf 
S0  Time 17:19:47  Date Oct 17 2017 
S0  /************************************************************************************************/
S0  /*                                                                                              */
S0  /*                                                                                              */
S0  /*                                                                                              */
S0  /*                                                                                              */
S0  /*                                                                                              */
S0  /*                                                                                              */
S0  /*                                                                                              */
S0  /*                                                                                              */
S0  /*                                                                                              */
S0  /*                                                                                              */
S0  /************************************************************************************************/
S02C000050443639323030202020202020202020202020203032313132323032313131395F303831365F30303328
S31900001400E826002015D50000FDD1000005D200000000000015
S319000014140000000000000000000000000000000000000000BE
S31900001428000000000DD20000000000000000000015D20000E4
S3190000143C517B00001DD2000025D200002DD2000035D20000DE
S31900001450000000003DD2000045D200004DD20000F59F0000A9
S3190000146455D200005DD2000065D2000019A100006DD20000E8
S3190000147875D200007DD2000085D200008DD2000095D20000A7
S3190000148C9DD20000A5D20000ADD20000B5D20000000000005A
S319000014A000000000BDD20000C5D20000CDD20000D5D20000C6
S319000014B400000000DDD20000E5D200008D9ABDE8FAFAFAFA04
S319000014C834010000C814000027150000C014000000140000D5
S319000014DCFBF30000FCF300002C040000E826002015D50000D1
S319000014F0DCD30000FAD3000000000000FAFAFAFAFAFAFAFA96
S31900001504FAFAFAFAFAFAFAFAFAFAFAFAFAFAFAFAFAFAFAFA45
S31900001518FAFAFAFAFAFAFAFAFAFAFAFAFAFAFAFAC403003121
S3190000152C363A35303A3333000000000000004F637420313881
S31900001540203230313700000000000000F83E490290010A008B
S319000015540100204E323C401FF83E490290010A000100204EB6
S31900001568323C401FF83E490290010A000100204E323C401F44
S3190000157CF83E490290010A000100204E323C401FF83E49027C
S3190000159090010A000100204E323C401FF83E490290010A004E
S319000015A40100204E323C401FF83E490290010A000100204E66
S319000015B8323C401FF83E490290010A000100204E323C401FF4
S319000015CCF83E490290010A000100204E323C401FF83E49022C
S319000015E090010A000100204E323C401FF83E490290010A00FE
S319000015F40100204E323C401FF83E490290010A000100204E16
S31900001608323C401FF83E490290010A000100204E323C401FA3
S3190000161CF83E490290010A000100204E323C401FF83E4902DB
S3190000163090010A000100204E323C401FF83E490290010A00AD
S319000016440100204E323C401FFF0010270A00A40032005000EA
S31900001658A400A4000000000000004A016801E7010000000094
S3190000166C1D0840011D0840011D0840011D0840011D08400166
S319000016801D0840011D0840011D0840011D0840011D08400152
S319000016941D0840011D0840011D0840011D0840011D0840013E
S319000016A81D0840011D0840011D0840011D0840011D0840012A
S319000016BC1D0840011D0840011D0840011D0840011D08400116
S319000016D01D0840011D0840011D0840011D0840011D08400102
S319000016E41D0840011D0840011D0840011D0840011D084001EE
S319000016F81D0840011D0840011D0840011D0840011D084001DA
S3190000170C1D0840011D0840011D0840011D0840011D084001C5
S319000017201D0840011D0840011D08400103203088014E000350
S31900001734A00200FF01FF02FF03FF04FF05FF06FF07FF08FFDE
S3190000174809FF0AFF0BFF0CFF0DFF0EFF0FFF10FF11FF12FF0A
S3190000175C13FF14FF15FF16FF17FF18FF19FF1AFF1BFF1CFF92
S319000017701DFF1EFF1FFF20FF21FF22FF23FF24FF25FF26FF1A
S3190000178427FF28FF29FF2AFF2BFF2CFF2DFF2EFF2FFF0002CF
S3190000179800004C044C044C044C044C044C044C044C044C0467
S319000017AC4C044C044C04555220220000000000004000DC0529
S319000017C06801D002490290013003D30003161300A4004001E1
S319000017D46801E70105053C0098036400000000000000000065
S319000017E800000000000000000000000000001E000E000C01AE
S319000017FC88130B001C000E000A01A00F0B001E000E000A0107
S3190000181088130B001B000E00080188130B001E000E0009010A
S3190000182488130B001C000E000901AC0D0B001E000E000C01D3
S3190000183888130B001E000E000B0188130B005DA1FD5DA1FE1B
S3190000184C5DA2FF5EA3FF5EA3FF5DA2FF5DA1FD5DA1FEBFC010
S31900001860C0C1C1C0BFC00001020203040506070708090A0BA2
S319000018740B0C0700DC057805FF00FFFFFF00FFFFFF00FFFFE7
S31900001888FF00FFFFFF00FFFFFF00FFFFFF00FFFFFF00FFFF55
S3190000189CFF00FFFFFF00FFFFFF00FFFFFF00FFFFFF00FFFF41
S319000018B0FF00FFFFFF00FFFFFF00FFFF3700010378001F0550
S319000018C41F0531051F050100FF01FF02FF03FF04FF05FF067C
S319000018D8FF07FF000000000032008C002C01140000C2EB0B3A
S319000018EC80B5017804290CD0052902D0072904D00BE0401CE0
S3190000190000F00CF802BD401C00F000FB02BD401C01F0A2F82D
S3190000191402BD012002BD0000F1B590B0002569460D84109827
S31900001928447830206043CC4908183230009010980178A54EBB
S3190000193C0127012908D00A2900D131E10B2900D1FFE00E2936
S319000019501CD0252900D11BE1432900D12FE1442900D12AE1E0
S31900001964A82903D0A92900D10AE2AB2900D12FE1AD2900D1DA
S319000019780DE2AF2900D12FE2B02919D0B12900D1BCE18DE233
S3190000198C210009A801F0B3FD09A8C1790691817905914E214D
S319000019A00491039102914179019101790091C37842780178AC
S319000019B4D24874E20021200001F018FD6946C8860321200021
S319000019C801F012FD694688860221200001F00CFD694648868E
S319000019DC0121200001F006FD694608860821200001F000FD47
S319000019F06946C8850921200001F0FAFC694688850A212000A9
S31900001A0401F0F4FC694648850021200001F082FC694608857F
S31900001A180321200001F07CFC6946C8840221200001F076FC66
S31900001A2C694688840721200001F070FC07000B21200001F0FC
S31900001A406BFC06000C21200001F066FC05000098817C2000C5
S31900001A5401F066FA694688770121200001F05AFC6946488475
S31900001A680321200001F0ECFB6946C8760221200001F0E6FB46
S31900001A7C694688760421200001F0E0FB6946487600212000E4
S31900001A9001F0DAFB694608760121200001F0D4FB0590684604
S31900001AA4007E04906846407E03906846807E02906846C07EED
S31900001AB801906846408CC0B200906846837F008D8007800FB4
S31900001ACC6946C98C89000422114001436846808CC000082214
S31900001AE0104008433901102211400143700120221040084302
S31900001AF4AA0140210A4002436846C08EFB2101406846808E28
S31900001B0880000843F72101406846408EC0000843EF210140C7
S31900001B1C6846008E00010843DF2101406846C08D400108435F
S31900001B30BF2101406846808D800108434006400E6946498DDA
S31900001B44C9010143C9B2A448A9E10521200001F04DFC050003
S31900001B580421200001F0DCFB6946888364206843711C884226
S31900001B6C01D2050000E035006846808B642242438A4200D30F
S31900001B80320068468283002392B2A9B2CA48F6E00EAA2000E4
S31900001B9400F0A0FF0EA8818801914E21009143880288C188B9
S31900001BA8C4487AE10421200001F01EFCC1B2C2A007E0062189
S31900001BBC00E00721200001F015FC0100BEA001F099F86EE1B5
S31900001BD0FFFF00000121200001F00AFC8000009949781022B8
S31900001BE411400143032008436946C8750098007888750421C6
S31900001BF8200001F08DFB210001F0AAFF0500009840880028F2
S31900001C0C17D06946888200980079042817DA07AA6846818A86
S31900001C20200001F01BFF00280FD16846818A280001F0C2FFE4
S31900001C340A2808DA6846858A05E00421200001F069FB694697
S31900001C4888820821200001F063FB694688836846808B8001EC
S31900001C5C004901E030F2FF1F09780901974A5118097A89071C
S31900001C70890E0143684681830421200001F0B8FB6946898B21
S31900001C840843694688830521200001F043FB0605360D092154
S31900001C98200001F03DFB0003304306000A21200001F036FB00
S31900001CAC81033143684601830B21200001F02EFB0600012166
S31900001CC0200001F029FB6946098BF2030A4392B204926946C7
S31900001CD4897D03916946C97D02917B49097849080F407F1C54
S31900001CE8FFB20197401CC0B200906846838BDBB2828A2900BD
S31900001CFC77A0D0E070D30000807802A948701098C0786946DA
S31900001D1008721098C279652A01DA160000E0642610988479CD
S31900001D24002C00D001244179002900D00121684601751098E3
S31900001D380079002812D1002721006846007D01F06CFF02003C
S31900001D4C07A80190684600890090330021001098407801F0D1
S31900001D609BFE07E021006846008901F002FF694688830020C5
S31900001D7403003A006846818B5CA000F0BFFF94E00098807EAA
S31900001D88410801220A40074039004F481EE00521200001F03F
S31900001D9C29FB05000421200001F0B8FA694688831420684383
S31900001DB0711C884201D2050000E035006846808B1422424361
S31900001DC48A4200D332006846828392B2A9B2404800F094FFD7
S31900001DD869E000BF88D300000521200001F004FB050004212E
S31900001DEC200001F093FA6946888314206843711C884201D27C
S31900001E00050000E035006846808B142242438A4200D3320069
S31900001E14684682830421200001F0E8FA07000021200001F0B0
S31900001E2877FA69460875200001F0CCFB069090204000A10004
S31900001E3C224A51180818019000880005860F23480090007871
S31900001E50802800D1300000010643200002F03AF80199098816
S31900001E6400018A05940F04434804410F00984078802800D185
S31900001E78080000010143C9B204916846808B0390F6B2029667
S31900001E8CE4B201946846007D0090FBB2AAB26846017E00BF61
S31900001EA015A000F02DFF02E08020694608846846008C11B09F
S31900001EB4F0BD00009CD30000A4D3000025630000257700005D
S31900001EC858FBFF1F3AFDFF1FC8270000C0270000A3FDFF1FA6
S31900001EDC257725772563256325632563256325770000000070
S31900001EF02577256325630000256325772563256325632563E8
S31900001F042577256300000000F1B590B0002069460886B7485D
S31900001F180088C880B6480090B64802903024109F3F78022FD6
S31900001F2C00D197E1042F00D1C4E3052F00D168E3092F00D14E
S31900001F401BE10B2F00D122E10C2F00D18CE11E2F00D157E3AC
S31900001F542B2F00D19EE1312F00D160E2322F00D15AE2332F86
S31900001F6800D16FE23A2F00D112E23D2F00D16BE1472F00D13F
S31900001F7C4BE2482F00D146E2492F00D104E24B2F53D04C2F67
S31900001F9054D04D2F55D04F2F56D0502F57D0562F00D180E171
S31900001FA4592F00D1ACE15A2F00D1A7E1612F00D1F0E0632F98
S31900001FB800D1E6E0842F00D11EE1852F00D1C1E1862F00D148
S31900001FCCBCE1872F5FD0892F00D196E18A2F00D18EE18B2FC6
S31900001FE000D113E28C2F00D10DE28D2F00D107E28E2F00D1A2
S31900001FF401E28F2F00D1FBE1902F29D0912F2AD0922F2BD057
S31900002008932F2CD0942F2DD0952F00D1BCE1962F00D1B7E1E0
S3190000201C982F00D195E1992F00D18DE19C2F00D12EE2A12F19
S3190000203000D1FBE2B02F00D175E2B12F00D16FE2B22F00D12D
S319000020449DE2B32F00D166E2B42F00D161E2B52F00D15BE21F
S31900002058B62F00D155E2B72F00D14FE2B82F00D149E2B92FCE
S3190000206C00D143E2BA2F00D1DEE2BB2F00D15BE3C02F00D131
S319000020806DE3C12F00D1E8E0C32F5FD0C42F6BD07AE3109819
S3190000209444780C2C5BDA200001F015FA08A908706846C088CA
S319000020A80121A140084206D1002008A9487088708C4EFF2080
S319000020BC1DE00B21200002F025F9000108A948700221200004
S319000020D002F01EF908A94978084308A948708870002120008E
S319000020E402F014F986B20321200002F00FF90A2102F02EFB27
S319000020F808A908710621200002F006F908A9C8707948610061
S3190000210C794A5118085A0A2102F01EFB08A948710721200043
S3190000212002F0F6F808A988710821200002F0F0F808A9C8710E
S3190000213408A80E9008200DA908700DAB320021006C4800F03E
S31900002148DBFD1FE3109844780C2C00DB9EE1200002F065FB3B
S3190000215C060002F074FB02003100A2E202F06FFB040002F0F9
S31900002170F2FC02002100C8489BE2C8480088FA21890002F089
S31900002184E7FA81B2E5E28188E3E21098401C00F031FB91E205
S31900002198109840780428D8DA04010822002108A802F0EEFC13
S319000021AC0020009000270225009808A90E180121E0B201F007
S319000021C0ABF83178B84008433070641C04276D1EF3D1009844
S319000021D4401C00900828E9DB08A80E9008200DA908700DAAB6
S319000021E810984178AC4800F087FDCBE2341B002038FDFF1FA5
S319000021FCBEFDFF1FA84CA948807A002804D120684178FD22B4
S319000022100A4042702068A54D002107910691A44909780591EA
S31900002224002104910391029129780191C17800918378427811
S3190000223801789E4800F060FD04220021206802F09FFC002064
S3190000224C28709DE20221002000F05EFD98E200F0D1FD95E224
S3190000226008A800F086FC02E008A800F065FC08A8C0790490E2
S3190000227408A88079039008A84079029008A80079019008A8AF
S31900002288C078009008A8837842780178884874E20098007860
S3190000229C8007800F042101431FE010984178162904D100989D
S319000022B000790407240F15E00724282903D10098007A0440C2
S319000022C40EE0CF0801200C40A0401099C870F0214900074A62
S319000022D8D219515C0840040000D00124210075A036E200BF06
S319000022ECFFFF00004E02000058FBFF1FB0D30000482402E048
S31900002300182400E000240622002108A802F03CFC00200090B0
S319000023140025009808A90F180821E0B200F092FF0600387828
S3190000232869008E4006433E70641C6D1C042DF1DB0098401C73
S3190000233C0090062854DAE7E7482402E0182400E00024062217
S31900002350002108A802F018FC002000900025009808A90F1857
S319000023640621E0B200F06EFF0600387869008E4006433E7065
S31900002378641C6D1C042DF1DB0098401C0090062830DAE7E7BB
S3190000238C482704E0302702E0182700E000270622002108A86C
S319000023A002F0F2FB002000900025009808A90E1800240721B4
S319000023B4F8B200F047FF002800D002240821F8B200F040FF0F
S319000023C8002800D00120317820436A009040084330707F1C16
S319000023DC6D1C042DE6DB0098401C00900628DDDB08A80E90B4
S319000023F00620C0E05C27602415E051275C2412E04627512445
S319000024040FE03B2746240CE030273B2409E0252707E01A2704
S31900002418252404E00B27162401E000270B243D00EDB2A54217
S3190000242C00D39FE030206843C249081844300178280000F019
S3190000244071FDE91B08AA50546D1CEDE7162530206843BB4923
S31900002454081844300178280000F062FD08A949191639087010
S319000024686D1C1A2DEFDB08A8C078039008A8807802900020EB
S3190000247C01900090002308A842780178C2487AE11098447856
S31900002490092C15DBC0487BE1B8D300005AFCFF1FC0D3000017
S319000024A424F2FF1FAC07002054FBFF1F00080020D02700008B
S319000024B8C8D30000256300000B20444327000B37FFB22500F6
S319000024CC05E0FF26E4B2281B08A90E546D1CEDB2BD4207D200
S319000024E00521280000F018FF4608FF2EEFDCEFE708A80E9023
S319000024F4381B3EE05C27602415E051275C2412E04627512495
S319000025080FE03B2746240CE030273B2409E0252707E01A27FF
S3190000251C252404E00B27162401E000270B243D0002E0FF2097
S3190000253030706D1CEDB2A5421AD2E81B08A90E1810980078FC
S31900002544B0380A2807D20521280000F0E3FE052102F0FEF85D
S31900002558EAE70521280000F0DBFEFF28E3DC0521280000F05D
S3190000256CD5FEDFE708A80E90E01B0DA9087088A000F0C0FB72
S3190000258004E1162508A84419163C10980078B22807D10521CA
S31900002594280000F0BFFE052102F0DAF80BE00521280000F045
S319000025A8B7FEFF2804DC0521280000F0B1FE00E0FF202070E1
S319000025BC6D1C1A2DE0DB04210D2001F0A3FE040008A8C078AA
S319000025D0039008A880780290594800784000B049085A0A2145
S319000025E402F0B6F80190554880880A2102F0B0F80090A3B25D
S319000025F808A84278017800BF68A0BEE01098401C00F006FA8D
S3190000260C56E0C07801900298807800904948008B0306DB0F84
S3190000262002984278017800BF62A0AAE00289C18863A03EE093
S319000026345A4810994978002931D057293AD1082210998978F7
S319000026480901C84B59180A3102F0A4FA6846C0890A2102F00B
S3190000265C7BF8694608806846407808A908706846007848704D
S3190000267068464079887068460079C870684680890A2102F0BE
S3190000268467F8694608806846407808A908716946097808AA34
S31900002698517108A94979029165E040886946088068460278F4
S319000026AC417800BF45A000F025FB69E080204000694664E08B
S319000026C0109884780B20444327000B37FFB210984078062802
S319000026D401DBBD485AE0002609E010984178200000F0B0FDA4
S319000026E8F6B208A98855641C761CE4B2BC42F2D308A8807A8D
S319000026FC079008A8407A069008A8007A059008A8C0790490F1
S3190000271008A88079039008A84079029008A80079019008A80E
S31900002724C078009008A883784278017827A026E010984678C2
S319000027380B2E03DBC44827E030F2FF1F042E00DB082683203F
S3190000274C40007100864A5118095ABFA000F0D2FA16E008A865
S3190000276000F024FA08A84079029008A80079019008A8C078B4
S31900002774009008A883784278017800BF19A000F0BDFA01E0DD
S31900002788802008866846008E11B0F0BD002C000001800000B2
S3190000279C25530000B806002025632563257725772577256361
S319000027B02563000025632563256325632563000025772577A7
S319000027C40000000025632563000000002563256325632563CB
S319000027D825632563256325632563256325630000256325631F
S319000027EC256325632563256300000000E0B586B000256A4613
S319000028001582B0490E780278172A4BD01A2A00D18EE0572ACE
S319000028140ED05F2A05D0602A60D0AD2A00D1A5E0CAE08B78DA
S319000028284A78310068A000F067FAC7E0407801001039702908
S3190000283C05D301009039302901D3D02801DB9F48BCE041001B
S31900002850C02802DB9D4A124B04E0802805DBFF22D2439B4BDD
S3190000286459188D5A02E001013F4A555A8006800D3D490E1827
S31900002878307A8007800F0190F0880A2101F066FF0090B7882D
S3190000288C768828000A2101F05FFF81B23B0032004EA08AE09A
S319000028A0C00600208B480578280130490E184E2003906800B7
S319000028B4CB49085A0A2101F04BFF029001954E200090B388CD
S319000028C875881E00814880880A2101F03FFF010033002A0052
S319000028DC41A06AE07C4880880A2101F035FF0290002E03D107
S319000028F006467848408907E07648C0880A2101F029FF0600C2
S31900002904734800890A2101F023FF07007048057801956800FD
S31900002918B249085A0A2101F019FF0090BBB2B2B2029900BF59
S3190000292C31A042E004210D2001F0ECFC86B2002E01D100201B
S319000029400CE0644880880A2101F004FF64214843310001F08C
S3190000295402FF6421484380B201904E2000904E234E22310085
S3190000296825A024E058FBFF1F9D4D0020295E5748007802F081
S3190000297C6FF906000020295E5348007802F0B2F951490F785B
S319000029900021695E0191009030000A2101F0DAFE85B238018F
S319000029A49149085A0A2101F0D3FE82B22B00390015A000F0B3
S319000029B8A3F903E080204000694608826846008A06B0E0BDE2
S319000029CC03800000256325632563000025772577257725637A
S319000029E025630000257725772577256325632577256300004D
S319000029F425772577257725772563000025772563256325639D
S31900002A08257700002563257725772563257700001FB500243C
S31900002A1C0078212810D173480188039101790291817901918D
S31900002A304188009143794E22002100BF74A000F05FF901E0E9
S31900002A4480246400200004B010BD00000480000025770000AF
S31900002A5830B587B00021002402780E2A16D0522A28D104AD45
S31900002A6C6980C178604A128801238B401A4206D02970807838
S31900002A80687004A9042002F03FFA69885AA000F037F914E069
S31900002A94417805A800F02FFD05A84178039181790291417965
S31900002AA801910179009100238278017852A000F023F900E003
S31900002ABC8024200007B030BDA2FDFF1F0180000080FEFFFFDE
S31900002AD0E006002030F2FF1F70B506000D001400082200210F
S31900002AE4200002F04FF804210D2001F00FFCE080062130007A
S31900002AF800F00EFC20281ADA0121300001F07EFC2080002110
S31900002B0C300001F079FCA0800521300000F0FEFB6080252D88
S31900002B2001D1642100E01421484380214902884200D3481EB5
S31900002B34608070BD79B500240025002603E0009804600024DA
S31900002B4800250121300000F04FFC000603D020000124AC40B7
S31900002B5C04436D1C761CF6B2182EECD0302EEEDB00984460F0
S31900002B7073BD79B500240025002603E0009804600024002556
S31900002B840221300000F032FC000603D020000124AC40044375
S31900002B986D1C761CF6B2182EECD0302EEEDB0098446073BDCB
S31900002BACF0B50022124B30270024002556197E439E194436EA
S31900002BC03678062E04DA26000124AC403443E4B26D1C082D39
S31900002BD4F0DB08320470401C302AE9DBF0BD0000C006002061
S31900002BE8B806002058FBFF1FC8170000341B0020257700009A
S31900002BFC30F2FF1F25632563256325632563256325630000C7
S31900002C1025632563256325772563256325770000F8B5040019
S31900002C24BB4862780270817000294BD17F4D0D21200002F005
S31900002C38D0FC002806D12A00290000BF29A000F055F8F1BDF1
S31900002C4CB24E2078B2A7717889070BD5022809D0002805D123
S31900002C60A078072802D1E07855280AD0AC4927E0002806D097
S31900002C7401280ED0022810D0042814D017E0A01C02F0ECFC98
S31900002C88B449884212D10020B3494875F1BDA01C03F0E6FA72
S31900002C9CF4E7A01CFEF724FE0028EFD1F1BDA01C03F064FBCC
S31900002CB0EAE728003178002901D0032915D10100380000F033
S31900002CC417F8F1BD0D21200002F085FC00280AD02078AC280A
S31900002CD807D16078FF2804D10F222100002003F0EDFBF1BD3B
S31900002CEC25772577000000000EB400B501AA0100522004E01D
S31900002D000EB400B501AA0100032000F09DF8009804B000475B
S31900002D14F3B58BB00023079309930893B94800880090002293
S31900002D28012401209040C0B200990500C9B2294203D1079911
S31900002D3C0D43EDB2079574498D182D79254204D0089F060002
S31900002D503E43F6B208966D08254203D0099D2843C0B20990D7
S31900002D64521C082ADFDB0798000600D00223A6480068C078D3
S31900002D784200042002401A430BA80078002801D0FF20087081
S31900002D8C6B4630201856022802D00CA8007888709C4D9D48D0
S31900002DA0008A06900998C0B205900898C0B204900798C0B29A
S31900002DB403902002285C0290487801900020009094480378E2
S31900002DC8002100BF06A0FFF797FFFF20E230285C400920427F
S31900002DDC01D003F0DAFE0DB0F0BD00002563256325632563B7
S31900002DF02563256325632563256325770000000000B585B09B
S31900002E048348817B0491018A0391C17D0291817D0191417D1A
S31900002E180091037DC27C817C04A0FFF76DFF03F0B6FE05B0F2
S31900002E2C00BD0000FFFF0000256325632563256325632563A1
S31900002E402577256300000000F2B588B0050014004E221821B3
S31900002E5401A803F0CDFE684605712D48007801A94870022563
S31900002E68002604E00170761CF6B2761CF6B208988319197894
S31900002E7C002933D0182E31DA6A1CD2B201A84019252902D093
S31900002E9001701500EDE75B78532B0AD0632B02D0772B14D0BD
S31900002EA4E2E7241D211F097801701500DDE72768241D79684E
S31900002EB80029D8D03A78002AD5D001F06BFE38782D18EDB2C0
S31900002ECCCFE7241D211F09886A461180694649780170694653
S31900002EE009784170AD1CF0E70D2101A802F089FB0220084946
S31900002EF40856002801D0012804D10F2201A9C0B203F0DEFA57
S31900002F080020C0430149887009B0F0BD00F2FF1F1905002096
S31900002F1C25770000FAFF000080B50200302A01DB112002BDA9
S31900002F3030235A43374B9A18493293789B0702D500F010F86C
S31900002F4402BD1278D20903D0080000F065F802BD00F0B6F8CA
S31900002F5802BD0000F0FF0000AC070020302250432A4A12185B
S31900002F6C4920135CD80905D0792901D12B2070474720704729
S31900002F80012000291CD0491E1ED0091F1CD01B39012933D90E
S31900002F943139042930D9491F30D00D3924D0C91E032923D9D2
S31900002FA8091F022922D9891F1AD0C91F22D0891E0AD0491E6D
S31900002FBC1CD021E0590901421FD006E05909014208D002E035
S31900002FD05909014201D002207047D808800701D00020704789
S31900002FE401207047492070474A207047482070474B20704779
S31900002FF845207047462070474C20704744207047341B0020D9
S3190000300C24F2FF1F58FBFF1F30F2FF1F55FBFF1F022831D923
S31900003020103802282ED9001F2CD0113830D01D382AD00E3824
S319000030342AD0083802282BD9C01E27D0C01E022828D9C01E5E
S319000030482AD0401E032821D90838022820D9C01E20D0401E62
S3190000305C20D0401E20D0801E20D0401E20D0401E20D0401E94
S3190000307020D0401E20D0C01E12D0401E02D0401E1CD01DE0D1
S319000030842B20704733207047112070473F2070473120704720
S31900003098382070473A20704739207047322070473E207047D0
S319000030AC2D2070472E2070472F2070471A20704747207047EC
S319000030C02C20704730225043924A1218012000296DD0491E1A
S319000030D471D0491E0BD0491E0BD0491E00D1ACE0491E68D0BA
S319000030E80B3960D0491E64D0491E78D0491E00D19FE0491EF2
S319000030FC5DD00C39012972D9891E022923D9C91E79D0491E6E
S3190000311001297AD9891E022979D9C91E73D0491E7BD0491EC1
S319000031247BD0491E65D0133935D0491E5DD00F395DD0491EE9
S319000031385DD0491E79D0491E57D0491E57D0491E57D0491E8F
S3190000314C57D0491E022958D9C91E54D0491E012955D9891E0E
S31900003160022954D9C91E56D0491E03294BD9091F03294AD9C2
S31900003174091F022949D9C91E49D0491E49D0491E012948D99A
S31900003188891E48D0491E48D0491E48D0491E48D0491E48D072
S3190000319C491E26D0891E38D0491E0ED0491E44D049E04932A9
S319000031B011784909014245D00AE049321178490901420CD073
S319000031C404E04921515C4909014201D00220704749321078B4
S319000031D8C008800701D000207047012070472B2070471B20D1
S319000031EC7047122070471C20704725207047242070472620F9
S3190000320070473D2070471F2070471E2070473420704736209D
S31900003214704735207047202070473C207047062070470720CF
S319000032287047082070471A20704743207047452070470320AC
S3190000323C70470420704711207047000038B5302837DA302256
S319000032505043304A14182500383509292FD801A0405C874458
S31900003264084C1C2C3C521222324228782C000021217032BD11
S319000032780321287800F021F8F6E7A8783A34F4E70121A878E7
S3190000328C00F019F8F8E7E8783B34ECE70321E87800F011F829
S319000032A0F8E728793C34E4E70121287900F009F8F8E76878E6
S319000032B43934DCE768793D34D9E7002032BD020008009042D3
S319000032C800D91000704730B50100302048430F4A151845358B
S319000032DC2C78200001236D796D091D4212D1042C0ED1AF4C48
S319000032F090256D0089006118495B0909890708D1F121490026
S31900003304615C8908194200E0072C00D1002030BD30F2FF1FD5
S31900003318F1B582B00346302B03DB062961D15020FEBD302461
S3190000332C6343A04CE31800931D4649351E46263603240C296A
S3190000334053D801A77F5CBF440C141E242A2E363A42588088F6
S31900003354960028784108032043E06846007AFFF7B4FFFEBD0E
S31900003368287841093AE02878810937E0308CFEBD18464E30B3
S3190000337C0088FEBDB07FFEBD307C10282FDA27E0707B2042C9
S3190000339003D128784008204201E00440032C24D111E0317C1E
S319000033A400290CD0491E0CD0491E012907D91E3912D0891E76
S319000033B810D0491E012915D813E00320FEBD0220FEBD307847
S319000033CC04280CD004E0307C022801D0032806D10120FEBD76
S319000033E0A878C10801200840FEBD0020FEBD0000F8B502003C
S319000033F40020302A09DB042901D10320F2BD062901D0072960
S319000034084BD16A48F2BD674B9024640095005D192E195500BC
S3190000341C01240A293FD801A77F5CBF440A10141A2830343E8F
S31900003430646A7400308880060DE031882CE03088810929E005
S3190000344430204243594880184930017822E030880007800F1E
S31900003458F2BD7088F2BDF52040005919081801E05348401948
S3190000346C01786A465170407869460870F3204000185C0009AD
S31900003480204201D14E20087068460088F2BD3088410801E051
S319000034943088C10901200840F2BD3088C00BF2BD80B501001C
S319000034A844A0FFF723FC01E003F0C6FB002003F0E8FB00285E
S319000034BCF8D1404800E000BF401EFCD101BD10B50121012213
S319000034D082403C4B1C8814420CD100205B8813420AD039480F
S319000034E400788008084201D0022010BD042010BD00F01EFDC8
S319000034F810BD38B504000D000020207106212800FFF79EFE5D
S3190000350C217980010843207109212800FFF796FE21794001F7
S319000035200843207108212800FFF78EFE002805D02179C0008B
S31900003534012202430A43227107212800FFF782FE2179400095
S319000035480843207103212800FFF7E2FEE0702079E1788900A0
S3190000355C01432171280000F033F800906846017821700121D2
S319000035702800FFF7D1FE607100212800FFF738FFA0710221D9
S319000035842800FFF733FFE07130206843074908184430017834
S319000035982800FFF7C3FC607006212800FFF7B8FEA07031BD73
S319000035AC58FBFF1F30F2FF1FFFFF00009805002025770000FD
S319000035C07AD40100341B00203DFDFF1F70B582B0060001215C
S319000035D4C0B2FFF70BFF04000821F0B2FFF706FF0500092172
S319000035E8F0B2FFF701FFE107C90F6A0002231A400A438400B7
S319000035FC0420044014430A21F0B2FFF7F3FEC0000821084011
S31900003610204369460870009876BD38B4012100220368001D93
S31900003624002B0BD00468001D0C4202D04D466D1E64192260C0
S31900003638241D1B1FF0D0FAE732BC704710B5002430206043DB
S3190000364C8D490818263004210170302101740021200000F08B
S319000036603EF8641C302CEFDB10BD80B500F007F8854800783E
S31900003674002801D000F063F801BD10B50024302060437F4996
S31900003688081836300178827B202A0DDA032907D0232903D0D9
S3190000369C242905D0302918D1202115E0022113E0222111E030
S319000036B0012907D9891E0CD01E3903D0891E01D00E3908D1B1
S319000036C4232101700121E0B200F007F801E003210170641C9E
S319000036D8302CD2DB10BD10B530225043674A10183230427863
S319000036ECF02313404370002202704378EF241C404470002910
S3190000370000D0828210BD61490978490601D414207047302183
S3190000371448435B4908182630007800280BD0022803D004D3A7
S31900003728032804D007E01220704711207047132070471020B6
S3190000373C7047F020704710B5B3480078400604D5002000F08E
S319000037501BF8002802D0012000F016F80020002130224A4313
S31900003764474B9A182632137C042B03DB537BF0241C4054730E
S3190000377804231370491C3029EEDB4149087010BDF1B59AB047
S3190000378C0120694688700020487001210EA803F0C7F8394878
S319000037A000784000BB490D5A0026002712E0012208216846B3
S319000037B4007800F071FC019833300078FC2101408008044088
S319000037C80C43019833300470761CF6B2684644782000303004
S319000037DC86424DDA302E04DA0EA8805D6946087005E0FFB258
S319000037F002A8C05D694608707F1C68460078FFF782FF8449CC
S31900003804097849060FD5302E0DDA01001139032909D26846B1
S31900003818007802A9085568464078401C69464870D2E7030031
S3190000382C1AA80278A9B26846007800F02BF8ADB2854203DAAF
S31900003840002569468D70C3E72D1A68460078302148430C4955
S31900003854081801903330017803248A080320104003220A4032
S319000038688242B1D01AA909780029ADD003289AD1002299E7DF
S3190000387C684680781BB0F0BD30F2FF1F020800203DFDFF1F52
S31900003890F7B586B01D006846007E30214843BE49081802905E
S319000038A407462837BC7B6846007E03F071FA6946088004263C
S319000038B8202C02D10520B87302E0232C00D1BE73102D07D040
S319000038CC05D3122D69D039D3142D01D039D396E0387F2028F3
S319000038E024DA00216846007EFFF7F9FE2120B8730298493017
S319000038F4019000784007820F08216846007E00F0CBFB019835
S319000039084078064301984670102D01D1202400E02224019843
S3190000391C00788106C90F6846007E00F013FA0AE001216846D7
S31900003930007EFFF7D4FE102D01D1232400E0242400206946EA
S31900003944088060E0387F20282EDA3888B8816A463988684682
S31900003958007E00F07FF86846808B6946098888420BD28C48FC
S3190000396C0078C0094BD0F88B6946898B884202D20846694604
S31900003980088008A8007800283FD068460088F883112D01D185
S31900003994002438E0387F202801DA022433E0032431E0387FDB
S319000039A8202808DB032C2CD1232401216846007EFFF791FE94
S319000039BC25E003A96846007E00F028F80425680003A9095A64
S319000039D000291AD0B9816A466846007E00F03EF802280ED086
S319000039E4684600886946898B884208D208A80078002808D004
S319000039F868460088F883012403E06D1E6DB2002DDFD5BC7342
S31900003A0C6846008809B0F0BD39FDFF1F70B5002200235E4E9A
S31900003A205C003025454375192D192D8D0D535B1C052BF5DBEE
S31900003A34501C030052008A1808E014885D004D192E88A64230
S31900003A4801D216802C805B1C052BF4DB0200052AECDB70BDB4
S31900003A5CF7B504000D00302060434C490F1832370126F87DDF
S31900003A7041093140200000F0A9F80299019100953B78020059
S31900003A84F87D400906403100200000F003F8FEBDC006002047
S31900003A98F7B582B018000021002500246A461170002802D188
S31900003AAC6846008D3FE03B494843642100F04FFE39494618F5
S31900003AC06846007B002800D076086846008D70438000354961
S31900003AD4884221D20195344F344D01987043642100F039FE89
S31900003AE8281A390000F035FE01006846008D784300F02FFE12
S31900003AFC0500641C0198854202D0E4B20A2CE5DBFA20400013
S31900003B1045432800390000F020FE0AE06846007A30214843B6
S31900003B241C4908184630008802216A4611706946098A80B23C
S31900003B38814207D2084669460978002902D101216A4611700A
S31900003B4C0B9908806846007805B0F0BD80B5302251430E4A38
S31900003B60511832310A78CB7D9906C90F00F001F802BD10B5D1
S31900003B7404000223002A0CD0002900D0032360430C3292B2C4
S31900003B88DA405043094900F0E4FD201A80B210BD30F2FF1FDA
S31900003B9C40FDFF1FD4300000DC05000040787D011027000062
S31900003BB0404B4C0050C30000814201D2401A02E0C2435018D2
S31900003BC4401C80B27047000038B5A44CA44AA35C0322802B08
S31900003BD807D190235B0085006419E35A9C0A0323234030242B
S31900003BEC6043B24C24183334032B02D1E07D800903E0A07D94
S31900003C00430803201840E378102B07DA207880080240032ADE
S31900003C1401D1002000E0012000F001F832BD0200A54B03D006
S31900003C2802280BD002D30AE0188808E0A2480078C00701D537
S31900003C3C988802E0588800E0D888002900D0400080B270472A
S31900003C50F1B582B06846007A30214143964A51184631009134
S31900003C640D887E4F9021490080003818465A01243106890F86
S31900003C7821406846007AFFF7A5FF7849795C802901D13105C8
S31900003C8C890F02292BD0A84200DA05008A4881888D420DDA06
S31900003CA041888D4201DA007800E040782E0045432800642124
S31900003CB400F04EFD3518ADB200984079009909898D420CD2E6
S31900003CC88108214206D00A2203216846007A00F0E1F9F7BD2A
S31900003CDC0421014301E0FB21014000984171F7BDF8B5002656
S31900003CF00024714F302060433D183635A87B202815DA287829
S31900003D04102812DB0121287D800808420DD0E87C400901401C
S31900003D18E0B200F019F82882E0B200F0A1F8287DFB21014037
S31900003D2C2975641C302CDFDB302070433818443000782028C2
S31900003D4002DAF0B2FFF784FF761C302EF2DBF1BDF2B582B02E
S31900003D5406005C4990225200B300CB189A1800923F4A895C5E
S31900003D680327802907D16946009A1288920A032313400B7122
S31900003D7C01E06A4611716946097AFFF721FF040068460079A7
S31900003D90002805D0022831D007D3032805D03AE0009840889D
S31900003DA4844226D234E0302046434248801945300578072D11
S31900003DB801D0052D01D1002511E00079400807403A00684616
S31900003DCC017A280000F023F8002F02D0042D00DA20002500DE
S31900003DE0844200D9050068460079032813D100984088A842A5
S31900003DF40FD3009845880CE000980088000607D517206043A6
S31900003E0880B2142100F0A2FC050000E02500A8B2FEBD18B5BF
S31900003E1C2A4C042812D18B235B00E318012A02D0022A09D001
S31900003E300AE0F3204000205CC00701D5588808E0188806E0D4
S31900003E44988804E083235B0040002018C05A002902D0002AA8
S31900003E5800D0400080B212BD58FBFF1F4B02000010B5174A5B
S31900003E6C1749535C0100802B06D190235B008C001219D25AB9
S31900003E801205930F032B16D1302251430A4A511846310A79BD
S31900003E949206920E0D4B1B780C88A34203D2402313430B716E
S31900003EA800E00A7109798A09082100F0F3F810BD30F2FF1F7F
S31900003EBCD01700003EFDFF1FD817000058FBFF1F4B020000FF
S31900003ED0DE1700003E4A3F49535C802B07D190214900800027
S31900003EE41018405A8005800F7047002B1ED030225043384AB7
S31900003EF8101836300278102A10DB052B14D0C07B002805D037
S31900003F0C401E022806D9C01E08D005E0032B09D0012B07D08F
S31900003F20062B05D001207047022B01D0012BF9D100207047DE
S31900003F34F8B50400284F3878002845D00921200000F0E4F947
S31900003F4806000A21200000F0DFF9050004210D2000F0DAF92C
S31900003F5C20490978B6B2721880B2824201DA0920F2BDADB267
S31900003F70AE4205D2A81B80B2814201D20820F2BDB86A61008B
S31900003F84C8408007800F05D0022807D004D3032806D019E05E
S31900003F980520F2BD0620F2BD0720F2BD0021200000F09EFDC4
S31900003FAC01280BD00121200000F098FD012805D002212000EF
S31900003FC000F092FD012801D10A20F2BD0120F2BD58FBFF1F53
S31900003FD44A02000030F2FF1F5C070020E618000080B5090286
S31900003FE80143684601806946052000F089FF01BD80B5090202
S31900003FFC0143684601806946072000F07FFF01BD80B58F234F
S319000040100340080118434006400ED101014368460170694677
S31900004024102000F06FFF01BDF0B5017830292EDAF52252004E
S319000040384900AF4B591889180B7883704A780271FF2B22D052
S3190000404CAB49AC4CCB181B5D1C0944700C2C1ADA8379A94D1C
S319000040604D190126002B03D02F88E740374210D000244471AB
S31900004074FF2A0FD0A14C8918095D0909C1700C2905DA002BB4
S3190000408805D02A88CA40324201D10020F0BD46710120F0BDF5
S3190000409CF2B58EB01700FD2600256C4680286BD1002939D0FE
S319000040B0012961D0032902D004290FD01AE1302068439149C1
S319000040C408184C21415C31404C3001706D1C302DF3DB39006D
S319000040D880209BE08848874949190A1810780109884B1B8887
S319000040ECCB40DB0714D50207920E03096C2463437F4CE31833
S319000041009A1880320007800E6C2359436118081880300068D0
S319000041140121B940884310606D1C602DCCDADBE76022FF211B
S31900004128B34800F02DFD012102A802F0FBFB302602A880191B
S3190000413C401E007820700120A0716846FFF770FF002810D0B6
S31900004150A07897210901EDB2684A521950546D1C6079002891
S3190000416405D02079EDB2644A521950546D1C761E05D0DFE7BF
S31900004178C02200219F4800F003FDB7E00EA909780200813AC7
S3190000418C0D2A03D20329F6D139003DE020700120A0710329D6
S319000041A000D1A5716846FFF741FF0028E9D00EA80078801E8D
S319000041B40728E4D801A1095C49008F440317992C3C41728095
S319000041C8A07840008B4909180120B8400A8802430A8061793C
S319000041DC002906D021794900854A51180A881043088081E0E1
S319000041F0207830214843444908184930C1780E40C670390025
S31900004204A078FFF7EDFE6079002871D039002079FFF7E6FEB9
S319000042186CE0207830214843394908184930C1780E40C670F4
S3190000422C3900A078FFF7E2FE607900285CD039002079FFF75C
S31900004240DBFE57E02078302148432F49081849300178BF2275
S319000042540A40B901402319401143017067482749A278254B22
S319000042689A18515C0907090F6278D2008218575461790029C1
S3190000427C3AD0217830225143204A511849310978890631D53C
S319000042901B4922799A18515C0907090FE278D200801847542F
S319000042A426E03A00A178607800F02EFA607900281ED03A008E
S319000042B82179E07800F026FA18E03A000E48A1780C4B591881
S319000042CC085C0107090F6078FFF79AFE607900280AD03A00D9
S319000042E007482179054B5918085C0107090FE078FFF78CFEBE
S319000042F40FB0F0BD58FBFF1F501500206C050000E4050000F4
S3190000430830F2FF1F361B0020F2B583B0010000220020B24BD0
S3190000431CB24C4D006D185D192C196C254D435D19503501954A
S3190000433006250E006E439D190095AC4D5D1902952E8801255C
S319000043448D403540FF2156316E46367B0A2E4ED801A7BF5DEF
S31900004358BF4400BF0C1624324E565C66707A8400002D42D0FE
S3190000436C009800883FE0002D3DD0009880788007800F38E000
S31900004380002D36D0009880788006000F31E0002D2FD00198F5
S31900004394418896484843BB30BB21490000F0DBF99349401AD3
S319000043A823E0AB20C0001A5A1AE0029800791CE0002D1AD0D9
S319000043BCA078A27017E0002D15D02078227012E0002D10D08B
S319000043D0607862700DE0002D0BD00198028803E0002D06D02B
S319000043E401988288C8205043AA3000F0B4F900B204B0F0BD17
S319000043F8C01E0020EC020020CC010020F2B584B0070001AC23
S3190000440C27700125A57100266846007C092800D1A67101A8B1
S31900004420FFF704FE00285DD030204743B348C019483000907F
S319000044340F216B4AB14B6846007C092800D9CBE001A73F5C6B
S319000044487F00BF44043A5D5F6872B9B1B9A5A078AA4B101807
S3190000445CC3181B780F20184040001B096C267343D31818188A
S319000044706E300388607900281BD02679A14894192618307802
S319000044840140490000096C246043101840186E300088009919
S3190000449849784909294203D01818C3031B0C04E0009909789E
S319000044ACC90900D10300C8205843AA30FF21563100F04DF916
S319000044C020E0A0788F4B1018C31818780F2303405B00000984
S319000044D46C2568431018C0185E3000886379002B7BD026798B
S319000044E8864B9419E6183378194049001B096C246343D218AD
S319000044FC51185E310988401880B26AE0012068E060786C217B
S3190000451048431018B1300078400805403AE0607900285CD0B1
S31900004524009840788106C90F0120484055E0A078734B1018F2
S31900004538C31860786C26704310181E780E408619A936367839
S3190000454C002E01D0012006E04A30068801201B780B40984070
S3190000456030406379002B3AD02679664B9619F618E3786C24C8
S319000045746343D21833780B40D318A9331B78002B05D14A32D0
S319000045881288337819408D4015400543280022E061780120ED
S3190000459C884080B2617900291BD0E1788D400543A8B216E05F
S319000045B06079002807D1A078185C0102872007E060790028FA
S319000045C406D0A078185C00022179595C084304E0A078185C6F
S319000045D8000200E0002005B0F0BD000050150020DD090000FA
S319000045ECE4050000521C0000D20A0000F0B583B06C46207068
S319000046000120A0716846FFF711FD002874D03E483C49A2782B
S319000046148218525C0F210F2313409B0012096C256A43821801
S31900004628D2188032176800226379002B37D0334B25794519B3
S3190000463CEB181D780F262E40B600B4462E096C256E43851962
S319000046506646AD1980352D683D432F001D780F232B409B0018
S319000046642D096C2675434519EB1880331A70244B25794519B3
S31900004678ED5C0F232B409B002D0975434519EB1881331A701A
S3190000468C1D4B25794519ED5C0F232B409B002D0975434519E3
S319000046A0EB1882331A70174BA5784519ED5C0F232B409B0060
S319000046B42D096C2675434519EB1880331A70104BA5784519F8
S319000046C8ED5C0F232B409B002D0975434519EB1881331A70CA
S319000046DC094BA4780419E35C194089001B096C246343C018E4
S319000046F04018823002703800FEBD000030F2FF1F8C02002053
S319000047046C0500005015002080B5000208430005000D1103FD
S3190000471801436846018069460F2000F0F1FB01BDF44600283A
S3190000472C04D4494200F013F8404260474042002905D45FD039
S3190000474000F00BF8404249426047494200F005F8494260470E
S3190000475403460B43E6D40022030A8B420BD203098B4219D25D
S3190000476843088B422ED2411A00D20146524110467047FF22EA
S3190000477C09023FD012068B4205D3121209028B4201D3121258
S31900004790090203098B4219D300E0090AC3098B4201D3CB0113
S319000047A4C01A524183098B4201D38B01C01A524143098B424F
S319000047B801D34B01C01A524103098B4201D30B01C01A524134
S319000047CCC3088B4201D3CB00C01A524183088B4201D38B0078
S319000047E0C01A524143088B4201D34B00C01A5241884200D311
S319000047F4401A5241CFD201461046704708B502F035FB08BD25
S3190000480810B5974C2C21200002F010FA9548A06200F044F979
S3190000481C002801D100F034F810BD70B505000026002004002B
S319000048303100280000F058F90100700081402143C8B2761C32
S31900004844032EF2DB70BD58B5002400F029F9002801D10120D1
S3190000485852BD00F07CF9FA218900884201DB022052BD002631
S3190000486C3100200000F03AF9032808D0761CF6B2032EF5DB80
S31900004880641CE4B20C2CF0DB002052BD80B5002802D000F0B7
S3190000489460F9401C80B200F03BF901BDF8B504006C20604361
S319000048A871490D185035FF2656362988C8204843AA303100B2
S319000048BCFFF74DFF87B2A988C8204843AA303100FFF745FF7E
S319000048D080B2874225DB3D1AADB266488188A94201DA02207E
S319000048E4F2BD4188A94201DA0120F2BD0088A84213DB00212B
S319000048F8200000F0F5F801280BD00121200000F0EFF8012863
S3190000490C05D00221200000F0E9F8012803D1152D01DB00206D
S31900004920F2BD0320F2BD38B500250024280000F019F8690034
S319000049348840204304006D1C0C2DF5DB4948846200F001F848
S3190000494831BD47480178002907D14178042902DA491C417086
S3190000495C704701210170704770B582B004000320694608709B
S31900004970414800880121A140084226D02000FFF78FFF06002F
S3190000498400256000001937490818401981784900AE4203D17C
S3190000499801220A43827000E08170807800F014F800280BD0DB
S319000049AC684606703100200000F098F8002803D131002000AF
S319000049C000F084F86D1C032DDDDB6846007876BD10B50021C1
S319000049D400224006400E03000B41DC07E40F1219D2B2491CDA
S319000049E80729F6DB042A01DA002010BD012010BDF0B583B0F8
S319000049FC00241A4F6D46302060431D490E1844363078142884
S31900004A1026DBF079F7210140F17101201849097849080142D0
S31900004A241CD02C70A8716846FFF7FEFA002815D0B96A0320E8
S31900004A386A7852000B00D3400340032B08D16A79002A09D0E2
S31900004A4CEA785200D1400840032803D0F07908210143F1710D
S31900004A60641C302CCDDBF7BD5C070020FFFFFF0050150020FF
S31900004A74E0180000341B002030F2FF1F41FDFF1F08B4024B1C
S31900004A889C4608BC6047C04627F0FF1F08B4024B9C4608BCDD
S31900004A9C6047C046BDF0FF1F10B52E4C1422216831A002F0C7
S31900004AB0E0F9000605D1606800680021C943884201D100201E
S31900004AC410BD012010BD000080B58A0025A189580C235843ED
S31900004AD8214B1B68181880181830FFF7D7FF01BD89000C2284
S31900004AEC50431C4A12681018401880691BA25158884201D1D2
S31900004B00012070470021C943884201D1002070470320704749
S31900004B14F1B51348FFF7B4FF104E3468002500BF13A707E05E
S31900004B28EDB2A80039582000FFF7B0FF6D1C241D3068010073
S31900004B3C14318C42F2D3694609881430FFF7A4FF0121706870
S31900004B50FFF7A0FFF1BD02480068406980B270471CF2FF1F98
S31900004B6400900100110000002200000033000000564F505FEC
S31900004B785F5F534543544F525F5F5F56414C494410B504003F
S31900004B8C10000A000100200002F01EF8200010BD124207D0B4
S31900004BA08B0706D00B78491C0370401C521EF7D8704783075C
S31900004BB406D00B78491C0370401C521EF9D1704770B4103AFB
S31900004BC803D378C9103A78C0FBD2530701D318C918C001D5B0
S31900004BDC08C908C0D20704D30B880380891C801C002A01D51F
S31900004BF00B78037070BC704770B500F0B0F800F0B4F85F48D2
S31900004C04007840070CD500245D4E5E4D0020295E200000F0C5
S31900004C1821F861007052641C102CF5DB70BD80B52022584975
S31900004C2C5548FFF7B5FF01BDF0B55349554A127852008A180B
S31900004C4013880024534D2601AE5B6700CE53641C102CF8DBB4
S31900004C54002800D11380F0BDF0B585B00C004C4900010D186C
S31900004C68F32040000F18012638788008304201D1288837E04E
S31900004C7C102229006846FFF78BFF297B0A2041433878C708C4
S31900004C90A1421EDA601AEA8950436A7B0A235343591AFFF79E
S31900004CA45AFD01B26846C08981420CDA68464089401A6946CC
S31900004CB8488137420FD0098880B2884209D2084607E0002004
S31900004CCC6946488105E0374203D068464089694608806846C9
S31900004CE0408969460988884200D3084605B0F0BD284AF323DC
S31900004CF45B00D35C5B0706D500011018027B0A235A4391429C
S31900004D0801DA01207047427B0A205043814201DA02207047ED
S31900004D1CC830814201DA032070470420704780B5172002F0D4
S31900004D30FCF88008B2218900884209DB2821484380B21B21A1
S31900004D44FFF706FD96218900401A04E00101081A0004000DA9
S31900004D58E13800B202BD80B5FFF7E3FF0849888001BD074844
S31900004D6C0421415E0222825E084B9A4200D01100018070471D
S31900004D803EFDFF1FC0060020B8060020E006002030F2FF1FB6
S31900004D9458FBFF1FFF7F0000F0B585B000259D49097808297F
S31900004DA801D1012400E000249A4F9B49791802919A49791891
S31900004DBC0191012846D0994A00213800FFF7DEFE06220021B5
S31900004DD003A8FFF7D9FE01009448381800909448009A1061AD
S31900004DE403AE002C12D0012002F0C4F830889049098888423B
S31900004DF807D17088002802D1B088002808D0062000E00A206E
S31900004E0C8249087003A9002002F0B0F8308800990880009872
S31900004E20008800994880002C02D10C2002F07AF9C020C0005F
S31900004E343B1864220821019802F084FA922000013B1805222C
S31900004E480821029802F07CFA019802F092FA029802F08FFAF9
S31900004E5C012000F027F80C22FF218C48FFF78EFEA82200217D
S31900004E708A48FFF789FE602200218948FFF784FE88490D808F
S31900004E8488490D70202200218748FFF77BFE87490D70874908
S31900004E980D70874845810020C043B14908600220B049785482
S31900004EAC05B0F0BD38B50400784D6022002128006C30FFF777
S31900004EC063FE60220021CC352800FFF75DFE534D0A2200216D
S31900004ED4A6482818FFF756FEA4482818FF2101708170032279
S31900004EE80379134003714171C171417A0A404272002C04D0D0
S31900004EFC60220021C148FFF741FE31BD7CB502006B461A705F
S31900004F10424C0F20122A1AD801A5AD5CAF4400BF16161438C3
S31900004F2440481676167654606A767C849E163000019169461A
S31900004F383A48201802F02DFA002804D1B148817802220A432C
S31900004F4C827073BD087800F035FA73BD080002F0A6FA73BD90
S31900004F60080002F0A9FA73BD0D88290AE8B202F0ABFA73BD41
S31900004F741822A648201802F0BBFBDAE70020C043784908600E
S31900004F8873BDA2482018027810251543057008889880CCE7E6
S31900004F9C0C229D200001E9E70D8801232A0BC749EEB2A419E4
S31900004FB0615C01402C0A204002F0A2FB73BD0B78DA095906CF
S31900004FC4490F184002F08AFC73BD1CB56A461070114A8F4B45
S31900004FD8D318002803D0022807D003D30AE01878FD2404E083
S31900004FEC1878FB2401E01878F72404401C700191694608480F
S31900005000101802F0CAF9002804D18048817804220A43827096
S3190000501413BD000054FBFF1F501500205C090000480900000A
S31900005028040A0000E40500002C020020BE240020F4B5060078
S3190000503C0C0002F08CFD0700B04D3100B04802F0D2F90028C1
S3190000505019D1E86805210180083002F003FE54216854685C45
S31900005064002804D102211035280002F005FE0099380002F0ED
S319000050787CFD0028E3D063488178082205E03078844204D0D5
S3190000508C5F48817810220A438270F1BDC0010020AC0300209B
S319000050A0CC010020FA070020F80700208C0700208807002067
S319000050B48907002030F2FF1F1CB5AC4C6946AC48201802F05C
S319000050C894F969468888514AA4180978002910D0012917D090
S319000050DC02291ED006292BD007292CD009292FD00C2930D0E5
S319000050F00D2935D011291CD013BD02F07FFD20780221014308
S31900005104217002F0C9FD13BD02F076FD207804210143217081
S3190000511803F0F2F813BD02F06DFD2078082101432170019845
S3190000512C03F010FB13BD02F063FD02F0F2FB13BD03F0ACFA01
S3190000514013BD010AC0B203F0B7FA13BDA249088013BD00F061
S31900005154DDF82078EF210140217013BD00F0B4F813BD0000B6
S31900005168F4070020DC090000E9050000F8B50123012100202C
S3190000517C7C4A6C278410640F2418E410E5B2944E755DE4005A
S31900005190061B0124B44025422CD04B4C15182D192C7824098D
S319000051A48E4E965BE6401E4222D02D782E07360F7C431419A1
S319000051B84A342488F4401C4218D174002D096C2675435519D6
S319000051CC2C196E342488844DAC420DD30B4909180C78641C1E
S319000051E00C70E4B2022C04D10D2102F06DF90220F2BD002128
S319000051F4401CC0B26028C1DB002901D00020F2BD0120F2BD16
S3190000520858060020E4240020CC050000010A0000F8B5040059
S3190000521C012501266B4601229C2103F0DBFD6846008802286F
S3190000523047D06B4601229C21200003F0D1FD6846008802287B
S319000052443DD06B4601229E21200003F0C7FD0426464F68466C
S31900005258008806216143795A88421DD16B4601229D212000AC
S3190000526C03F0B8FD68460088002813D05B4861000919791888
S31900005280081869460988314205D04178FF2907D0491C41709E
S3190000529404E00178FF2901D0491C01704F4839180A88012039
S319000052A8A04082430A80B748006881780E438670B548817820
S319000052BC0D43857000263000F2BD00006C050000DCB5070085
S319000052D0002600240120A040074204D0AD4AA821200003F089
S319000052E469FD641C0C2CF3DB0A2002F096FC0120B0400742BC
S319000052F802D0300001F012FF761C0C2EF5DBD3BDB804002090
S3190000530CAC1E002030B583B0040000250120A840A1B20142BD
S3190000532011D002229C21280003F046FD6B4601229C2128009A
S3190000533403F054FD68460088022802D00120A84084436D1C90
S319000053480C2DE5DBA4B2002C06D02000FFF7BAFF8F480188CB
S3190000535C0C43048037BD80B501F0FAFD80208C49086001BDB8
S31900005370501500204809000080B500210C2002F08DF801BD96
S3190000538480B501000A001448802A04D10C22FF21FFF7F8FBBD
S3190000539801BD0B00813B0D2B04D2FF2180188138017001BDC8
S319000053ACD2088018027801234907490F8B401343037001BDDD
S319000053C0C108064A51180A7801234007400F83409A430A70FB
S319000053D470470000FA070020C0010020E40500008902000092
S319000053E8DD090000FEB56C4FF868083002F036FC542178545A
S319000053FC785C002800D1C2E002210C2002F048F802F0D1FAEA
S319000054106448009060480190012402F09EFB029061480078AA
S31900005424012101435F4801700098007A072801DA092500E0C6
S319000054380F2502F0EBFB0600742003F0BBFE854201D3002E3F
S3190000544C5ED10020009908720099C860009908610025019863
S3190000546000880121A94008421BD050480078C008204209D057
S31900005474F8680480083002F0F3FB54217854785C00287BD09A
S319000054882800FFF7C5FE002807D00098007A401C00990872A9
S3190000549C280003F0AFFE6D1CEDB20C2DD9DB0098C068400019
S319000054B0009948600098017A002909D000690A225043FFF76E
S319000054C44AF9401D0A21FFF746F900E00F200099088004F0AA
S319000054D885F8002809D002F03CFB3349096802F03BFB0628D0
S319000054ECF7D304F0D9F83048007801990979884201D104F07B
S31900005500C5F904F0B9FA01E0FFF7D8FD2A4801F042FF0028B4
S31900005514F8D129480078012811D10198007E04F0D5FA01984D
S31900005528007E001D01990876C0B2102805D1002001990876FE
S3190000553C02201F49087002F00AFB029902F00AFB0100F86869
S31900005550142909D30480083002F084FB54217854785C0028BE
S319000055640AD10BE01422511A0180083002F078FB5421785467
S31900005578785C002800D04CE702211037380002F079FBF7BD5E
S3190000558C24F2FF1FE4240020CDAB0000341B002084F00F40FF
S319000055A0B8040020A81A0020FC070020511F0020F007002069
S319000055B430F2FF1F981E00200608002010B50200002300208F
S319000055C803E0D45C001980B25B1CDBB28B42F8D310BD38B515
S319000055DC05000C00FFF7EEFF29190A786B465A706A46497811
S319000055F0117069460988814201D0002032BD012032BD38B540
S3190000560405000C00FFF7DAFF69460880281949780170694653
S319000056180978417031BD0000002901D0042901DB094870474D
S3190000562C902252008000084B181880180288074B134089000D
S319000056400C220A401A430280002004490870704704800000D9
S3190000565458FBFF1FF3FF000055FBFF1F80B50178052902D0BD
S31900005668072904D007E0401C00F008F802BD401C00F020FACC
S3190000567C02BD012002BD0000F0B585B0050068780390A87803
S3190000569004900398802805D0302801DBA948A7E0C7B200E04F
S319000056A40027A84990204000BA008A18101830227A43A54B61
S319000056B89A18009216462636FF22E632891801242A78022A0F
S319000056CC00D1B9E00A2A00D1E8E00B2A00D1D8E00C2A00D1C8
S319000056E09FE03A2A00D1E7E0432A00D104E14A2A00D17FE06E
S319000056F4512A00D1E4E0A22A00D1BCE0A62A05D0A92A00D10A
S31900005708AAE1AA2A00D0AC2A00D111E1AD2A00D1B7E0AE2AA8
S3190000571C00D1AAE0AF2A00D0B8E1E979032903DB4E2901D022
S3190000573087485DE0297A4E292AD00A07120F042A19DA028862
S3190000574413059B0F0C07240FA34212D0804B13408902C022F1
S3190000575812010A401A430280B17F202907DA009949314978CD
S3190000576C04220A43009949314A70297A0909052908DA028894
S31900005780754B13400903E022D2010A401A430280E9794E2919
S3190000579408D00288C04B13400902C02292000A401A43028093
S319000057A8E87801A94870287969460871022268468188380049
S319000057BC00F0FDFB69793800FFF72CFFA979380000F0AEFCBC
S319000057D00400A978380000F048FC20432CD17F1CFFB2302F23
S319000057E403DA0398802800D15BE7002005B0F0BDE87801A9EC
S319000057F84870287969460871002268468188380000F0D7FB43
S3190000580C69793800FFF706FFA978380000F027FC00280BD1FD
S31900005820DDE7E978380000F081FC0400A978380000F01BFC40
S319000058342043D2D0052203213800FEF72DFCCCE70188964A98
S319000058480A4004990C40A10111430180052203213800FEF724
S3190000585C1FFC009849300078FE21014000984930017000208C
S319000058708C490870B3E7032200E00122B07F2028B5DA307C5D
S31900005884032803D1B1E7022200E00022A87801A94870E8786B
S319000058986946087168468188380000F08AFB9AE70499C9B2D1
S319000058AC3800FFF7B7FE00289CD192E7002030757075B07522
S319000058C0B0748CE7009949310978049AD2070BD58A09224255
S319000058D483D101220A43009949310A7001880C4304807AE7AC
S319000058E8C1200142FBD0FE20084000994931BCE70398802858
S319000058FC01D16A4876E748780009204201D1FF20E870A8781D
S31900005910602802DBFF2806D102E0E978602904DBE978FF29E6
S3190000592401D0614862E77900604A51180870E878487052E751
S319000059380878810921420DD15C4855E70880000058FBFF1F31
S3190000594C30F2FF1F06800000FFF30000FF8F0000C00907D05B
S3190000596004988107890F3800FFF75AFE0028E8D12878A6289C
S3190000597401D1347001E002203070707B800719D10098493093
S3190000598800784007800F03D002280BD005D30FE0707B032109
S3190000599C014371730AE0707BFC210140012003E0707BFC218A
S319000059B00140022008437073717BF3200840AA78530601D5B4
S319000059C4910903E08907890F022901D0890000E00421014356
S319000059D871732878AC2801D1002003E0E879652800DB64203B
S319000059EC3073EA1C3900287800F0CEFB2878AC2821D1A878E0
S31900005A00042101406A465172082108406946087200200021D8
S31900005A14737BEF221A400901114371736946097A002901D0B1
S31900005A2800213170002801D0032030706846407A002801D085
S31900005A3C1E480470CDE62A7A012111406B46597202211140BC
S31900005A501972A628DCD15007C00F1107C90FD9E7009849304F
S31900005A64C078FE210140A878012202400A4300984930C2707B
S31900005A78B07F03280BD100984930C078FD210140E878044092
S31900005A8C6000084300994931C870A2E68020A9E6FFFC000058
S31900005AA0BFFF000055FBFF1F0A8000000980000098050020F0
S31900005AB40C80000002080020FEB505000024974897490191F5
S31900005AC89749984A0292F822072601272B78052B00D1C1E0BA
S31900005ADC092B00D118E10B2B00D1B6E02B2B00D182E03D2B24
S31900005AF000D1F6E0432B00D1F7E0552B00D1DFE0562B26D058
S31900005B04632B1BD0872B08D0A12B00D114E1BA2B00D121E13A
S31900005B18BB2B74D04CE16A780C2A01DBA648FEBDEB780A21F1
S31900005B2C5943008888424CD3A3485200B64B9A1811523CE1E2
S31900005B4068786A465070A878107068460088888033E1687829
S31900005B54162811D0282804D02E281AD032282AD02FE0A87831
S31900005B68052806DA0199097A0A4006401643019806721EE100
S31900005B7CA8780628FBDA01990979F0220A400007000F10430B
S31900005B900199087111E1A878002806D18A490F700198407933
S31900005BA4BF21014005E0FDF74BFD0198407940210143019815
S31900005BB84171A878002802D10120FFF737F86978C8080B28DC
S31900005BCC01D37F48FEBD0E40B740EF70F02149008D4A10186C
S31900005BE040180178AA78002A01D00F4390E0B9430170E2E0CC
S31900005BF401980078024068780640164301980670D9E0A978DC
S31900005C086A465170E97811706978042909DB08216970808A31
S31900005C1C6946098888420ED2694608800BE0408A128890422C
S31900005C3001D26A461080002903D168460088029988818320CD
S31900005C44400069784900724A51186A4612880A52B1E0681CFC
S31900005C5800F0BEF80400ACE06878FF281DD0AA78FF2A1AD0D3
S31900005C6C64230A260A2801DA6E7002E0652800DB6B700A2A23
S31900005C8001DAAE7002E0652A00DBAB70A8786A78824202D30F
S31900005C940A70A87801E00870687848708BE0E8780028FBD0AD
S31900005CA82A79002AF8D0904202D38A70E87801E088702879D2
S31900005CBCC8707CE0687800280BD1A878552808D1E878002858
S31900005CD005D12879552802D1002000F05DF9A94C6BE068786D
S31900005CE43A49087067E03A480078C008384201D0A44C60E027
S31900005CF8A44D280000F098F900280BD060222900A14801F070
S31900005D0CF3FCA148077052E06878C11E3A2909D3284C4CE05E
S31900005D20BE17000038FDFF1FBEFDFF1F5AFCFF1FFA21890050
S31900005D344143029801803EE068786A465070A87810706846FA
S31900005D480088C880E8785070287910706846008808812EE063
S31900005D5C687800281ED0572826D1E8786946487028790870E1
S31900005D70A878000127490818694609880A22514341816979C4
S31900005D840173A9794173E9796A465170297A11706946098884
S31900005D980A225143C1810CE0A87869464870E87808706846F6
S31900005DAC00889B49488002E03C0200E080242000FEBD00002A
S31900005DC0018000004E020000020800200380000001F2FF1F3A
S31900005DD4511F0020F0B585B000210D4B0278572A41D05F2A3D
S31900005DE803D0A72A00D1BAE0C5E04478072C03DB802C01D0A3
S31900005DFC4E2C3DD18278042A08DB802A06D04E2A04D0844862
S31900005E1029E000BF58FBFF1FC278052A03DB802A01D04E2A05
S31900005E244FD17F4A9A184E2C00D0147083784E2B12D05478D9
S31900005E389C420FD0537030234B43794CE31844331C78202CD8
S31900005E4C03DA9C79042525439D71491C3029F0DBC0784E2874
S31900005E6000D09070002005B0F0BD44782200103A702A03D33E
S31900005E74912C03DBFF2C26D06B48F2E782786D466A70C2780B
S31900005E882A7002AA2D88158005796E467570457935706D4643
S31900005E9C2D88558085797570C57935706D462D8895802501F9
S31900005EB05B190093007AFF280AD1D888D0801088974B984251
S31900005EC408DB9748CDE7FEF7ACFEC9E70A234343D380F2E720
S31900005ED80A23584310806500914840190190112C05DB10887B
S31900005EECFF21C943019A5052B6E79688A048A14B9E420FD1E4
S31900005F00009EB688968056889E4213D10098408850809088AB
S31900005F141E305288904210DB9948A2E75788B74201D217481A
S31900005F289DE74788BE42EAD2954898E70088B042EBD29448E1
S31900005F3C93E794480170082202A9009801F0D4FB0098008837
S31900005F500199088031480021415E2000FEF77EFEB3494853B4
S31900005F647EE74178090159180A7AFC23134080788007800F86
S31900005F781843087272E78020400070E704800000F0FF000037
S31900005F8C9805002042FDFF1F1905002080B5FDF783FAA54810
S31900005FA00068817801220A438270BFF34F8FA248A249086057
S31900005FB4BFF34F8FFEE730B50500080014006F49884227D0DF
S31900005FC8002C01D0012C01D1642100E01421FEF7BDFB30212B
S31900005FDC6943124A51184431002C05D0022C03D013D3032CAE
S31900005FF011D030BD91225200AB00914CE3189852087820288F
S3190000600403DA8879042202438A7100205F49087030BD488049
S3190000601830BD0000B8060020028000004A02000030F2FF1F95
S3190000602C0180000010B598B004006846602100F0FBFD302061
S3190000604002212278602A08DA6B469A181378002B01D0002013
S3190000605407E001231370641C491EF0D1401EEDD1012018B0F7
S3190000606810BDF1B581B04E2901D10020F6BD08090022002506
S3190000607C90235B006C462479A4006E4E3419E31801240F28A9
S3190000609001D0002819D11F886A4E3E4001270F4037431F80A6
S319000060A4274200D101256E46367930277E43654FBE190096E6
S319000060B849363778FE263E40009F49373E700F2801D0012800
S319000060CC0CD11E885E4F3740BC464E08760002273E406746F1
S319000060E03E431E800F2801D002280BD11E88584D35408E0823
S319000060F4F701802637402F431F8001250F2801D0032806D13C
S3190000610818884004400CC908C903014319801E4802702800D3
S3190000611CF6BD00007117000003800000E006002070B502007E
S319000061300023002003291EDA902464009500404E75192C19E0
S3190000614425882E06360FB607B60F8E4211D0404828400901EE
S3190000615830250D4005432580012030214A4338498918492212
S3190000616C8A5CFE24144049310C7006490B7070BDC4170000F5
S31900006180FFFF000007800000058000000680000055FBFF1F07
S3190000619470B582B00600140030204143294845180A2128008B
S319000061A8283000F041FD0020A62E04D0AA2E0DD0AC2E17D019
S319000061BC73BD207869464870684661780170008828856846BF
S319000061D0008809E0215C8A0051184200AA181185401C0428B2
S319000061E4F6DB288DA88673BD6946225C0A70A1796A4651708B
S319000061F8042801D1617951704210920F121892109200811A08
S3190000620C4906090E6A46527803238B401340CB4069464B70DF
S3190000622009884200AA181185401C0528DEDB73BDC0060020E1
S3190000623424F2FF1F0400FA050CED00E058FBFF1FFEFF0000D2
S3190000624830F2FF1FFDFF00007FFF0000CFFF000008B4024BAB
S3190000625C9C4608BC6047C0464DF1FF1FF8B500210024022560
S31900006270324F01260278062A1AD0072A49D02D2A2CD0412AD0
S319000062843FD0FF2A56D100BF38A243185B78555CAB4202D06A
S31900006298F0030843F2BD491CC9B20529F3D3002000F056F8CD
S319000062AC2000F2BD40780F283ED122480078C008304212D10C
S319000062C020480178491C017003F064FC0028EDD178780421BF
S319000062D4014379700124E7E718480078C008304201D0184C49
S319000062E8E0E703F091FD03F051FC002802D015480570D7E78A
S319000062FC7878082101437970D2E74078114A1070114801702C
S31900006310CCE7407801280DD1FEF71DFCFA218900884203DAA8
S319000063240120FEF7B1FABFE7787805437D70BBE78024B9E7ED
S319000063380120F2BDE4240020511F002000080020F0FF0000AC
S3190000634C1905002058FCFF1F55FBFF1F10B50400FFF701F861
S319000063602000FDF79FF8FFF777FF00F04AFAFEE79915161619
S319000063749900000080B50178042902D0072904D007E0401C82
S3190000638800F007F802BD401C00F024F802BD012002BD1CB575
S3190000639C00240178532918D120490988012243799A401142DF
S319000063B012D0C1786A465170694602790A7001A96A461288AF
S319000063C44A8042790A70807848700320FEF79AFD00E08024DD
S319000063D8200016BD010000200A78C22A1DD14A781202897864
S319000063EC0A430F498A4217D101210E4A127852080A4203D1C0
S319000064000B210C4A117070470B4A53780B4209D11943517064
S3190000641403211170517802230B4353707047802070470000BC
S31900006428341B00209B90000039FDFF1F54FBFF1F19050020C1
S3190000643C08B4024B9C4608BC6047C0464DF1FF1F08B4024B85
S319000064509C4608BC6047C0465DF1FF1F10B5A84C1821200061
S3190000646400F0E6FB00F0F4FB0F2000F05CFD80093C210140CF
S31900006478A181084604D00121A17203F099FD04E0A07296205C
S3190000648CC00103F009FE60229B499C48FEF780FB10BD80B57F
S319000064A0FFF7CCFF002000F0E3FB002000F031FC93480021FA
S319000064B401728089C0B203F07DFDFFF7C5FF01BDF8B5060048
S319000064C80F0014000125002C04D18E4841780D434570F1BD2E
S319000064DC8848807A012801D1FFF7AAFF3900300000F0D2FB1C
S319000064F001280ED1002E03D18148807A002801D0012E02D1CA
S31900006504300003F051FE3900300000F0C6FB7F1C641EA4B27E
S31900006518002CE5D17848807A012801D1FFF792FF002E0ED13E
S3190000652C7448807A00280DD001280DD1994800788009284247
S3190000654008D0082097490860F1BD012E02D1012003F02CFE0B
S31900006554F1BD70B5040000F0E2FB0F2803DB200000F07AF8F2
S3190000656870BD00281CD06448A10046180519287A002805D16F
S3190000657C01F0EDFA30600120287270BDFA214900306801F0C8
S31900006590F0FA002808D0FFF751FF00202872200000F0B7FB45
S319000065A4FFF752FF70BDF1B582B0012708240025524E7A48B6
S319000065B80078C00838421DD0307D002804D03575377601F031
S319000065CCC6FA3061307E002812D074480188306901F0C9FA1A
S319000065E000280BD071480068817808220A438270FFF755FFD1
S319000065F46E4804603576F7BD6846007A00F08FFB0F2804DB5C
S319000066086846007A00F026F8F7BD002821D06846007A8100CC
S3190000661C711800913618307A012805D001F097FA00990860D1
S319000066303772F7BDFA2149000098006801F099FA00280AD009
S31900006644FFF7FAFE3572594804606846007A00F05EFBFFF73B
S31900006658F9FEF7BDF0B585B0040000260025264F01207875D1
S3190000666C6946200000F072FB6846007801A948556D1C0F2DB6
S31900006680F4DB210001A8FCF7CBFA787D002807D00F256946D8
S31900006694200000F057FB6D1E03D0F8E7200000F0EAFA381908
S319000066A8067205B0F0BD012013490875704780B53E4902206F
S319000066BC03224B781340012B06D13C4B1B789B070ED40B21BC
S319000066D03A4A11703A490A78104308700848807A012808D18F
S319000066E40020FFF760FF01BD0A704A781043487001BD002044
S319000066F8FFF72DFF01BD0000AC07002042FDFF1F98050020BB
S3190000670CE424002070B52C4DE868083001F0A4FA5421685465
S31900006720685C0028284C0AD170BD01210180083001F098FA99
S3190000673454216854685C002829D001F00CFA0600FFF7B7FF8C
S3190000674803F04CFD03F08AFFA07D401CA075C0B20921FDF761
S3190000675CFBFF002903D100F00CFA0020A07501F0F6F93100F0
S3190000677001F0F6F90100E8680729D6D20722511A01800830B9
S3190000678401F06EFA54216854685C0028D5D10221103528004F
S3190000679801F070FA00BF00003BFDFF1F88F00F405AFCFF1F3C
S319000067AC24F2FF1F84F00F401905002039FDFF1F54FBFF1FDD
S319000067C0FC070020B8040020AC07002080B597484178491CBB
S319000067D4C9B20B2906D102781207120F0F2A01D100210170D4
S319000067E8417040780B2801DA00F026FA01BD00208C4A50709C
S319000067FC8C490860704780B58B488A49086000F019FABFF397
S319000068104F8F894889490860BFF34F8FFEE7884800680028B0
S3190000682400D1704780B5C06A007885490978884201D000F021
S3190000683801F801BDB0B588B0002502A834A11022FEF7BCF972
S3190000684C01A800BF35A10A680260002402A8032141717849BB
S319000068600968C96A0978817176490978C1710021425CAD1811
S31900006874ADB2491C0D29F9D3290A4173857301AF00F0DCF9F0
S319000068880F2202A90020FFF719FE01F062F905006B48807AEF
S3190000689C002816D0002000F0F2F90028FAD1694600F04CFA01
S319000068B00028F5D168460078395D884201D00024EEE7641C10
S319000068C4E4B2042CEADB19E00024FA218900280001F04DF90F
S319000068D80028D3D100F0D5F90028F4D1694600F02FFA00283F
S319000068ECEFD168460078395D8842E9D1641CE4B2042CE6DB8B
S31900006900FFF79CFDAD480068C17801220A43C270FFF777FF4A
S3190000691408B0B0BD03FF024E4E4E4E4E4E4E4E4E4E00000034
S31900006928454E5452F3B58DB03022FF2101A8FEF727F93022B5
S3190000693CFF210D98FEF722F90020002130224A439C4B9A18B3
S319000069504A3212789207920F01AB5A540D9B5954491C302980
S31900006964F0DB411C0D9A121801AB1B18009333E0009B1C786C
S3190000697801AB5D182E780D9B5B18A64206D2009F3E702C707A
S3190000698C14781E7816701C70009C24782D78AC421DD1147878
S319000069A01D78A54201D215701C700EAC2478002C13D014788C
S319000069B430256543814E751936352D78102D0ADB1D78302652
S319000069C86E437D4FBE1936363678102E01DA15701C70491CB8
S319000069DC3029C9DB401C2F28BFDB0FB0F0BD30B50020754928
S319000069F030224243724B9A184A23D45CFC2323409024640010
S31900006A0485004D192C5B2406A40EA407A40F1C434A3214706D
S31900006A18401C3028E8DB30BD67490A8A104308827047000028
S31900006A2CFC07002000F0FF1F5A876A950400FA050CED00E063
S31900006A4028F2FF1FBC170000AC070020F3B581B011001E0056
S31900006A54002468460079FCF763FA07000125002E6AD068464A
S31900006A68017A0079FCF75AFA0600052F01DB2B2F0CD1062E58
S31900006A7C02DB2B2E04D107E0032E05D1042F03D10120FFF7E9
S31900006A90C7FF0124B74220D01C2F09D01F2F05D0252F05D0A8
S31900006AA4312F01D04A2F16D1202011E045480078800928421E
S31900006AB80BD068460079302148433F4908184A300078C00686
S31900006ACC800F032803D00420FFF7A4FF0124052E01DB2B2ED9
S31900006AE03DD1062F07DB2B2F05D0452F03D00220FFF796FF54
S31900006AF401241E3F1CD07F1E18D07F1E1AD0113F14D07F1E3D
S31900006B0816D0BF1E012F0FD93F1F012F0CD93F1F032F0DD9AF
S31900006B1C083F012F06D93F1F06D07F1E06D07F1E012F16D8A7
S31900006B30082011E010200FE040200DE01F3F012F09D9FF1F38
S31900006B4407D00B3F012F04D90B3F032F01D9FF1F03D1802021
S31900006B58FFF762FF01E0002C0CD068460079C0081549081876
S31900006B6C817C6A4612795207520F95400D438574F7BD1048F3
S31900006B80008A12490988084204D01148016810220A430260C4
S31900006B94704780B5FFF750FC08480021018206221230FDF767
S31900006BA8EFFFFFF74FFC0848016810229143016001BD0000C6
S31900006BBC24F2FF1F30F2FF1F58FBFF1F40FDFF1FC2FDFF1FA2
S31900006BD094F00F401206130A1A43130C1A4300BF094205D0EB
S31900006BE483070BD00270401C491EF9D1704700001206130A47
S31900006BF81A43130C1A4300BF130030B414001500103902D3AD
S31900006C0C10393CC0FCD2490700D30CC000D504C0890002D375
S31900006C200280801C002900D5027030BC704700000022D5E74B
S31900006C340022E3E70C20044908607047034855210160AA21D5
S31900006C4801607047008104400481044080B5002000F00AF845
S31900006C5C002000F058F8012000F004F8012000F052F801BD98
S31900006C7080B5142148433D494FE080B51421484339490818C9
S31900006C8400F0DEFB01BD80B51421484336494AE080B5142266
S31900006C985043344A4DE080B514225043314A101800F077FBA1
S31900006CAC01BD70B5040016002D48002C1BD1002919D02C4CBA
S31900006CC021780025002901D0481E05E0310000F090FB0028E3
S31900006CD403D10E202070357007E00020FFF7D3FF002802D1A5
S31900006CE8082022490860002070BD310014226243801800F0B6
S31900006CFC7AFB002802D10020C04370BD2000FFF7BEFF00B239
S31900006D1070BD80B5142148431349081800F02DFB01BD80B5C0
S31900006D24142148430F49081800F033FB02BD80B51422504342
S31900006D380B4A101800F02DFB401E8041C00F02BD80B5142294
S31900006D4C5043064A101800F04EFBF3E780B514225043024AC5
S31900006D60101800F07AFBEBE79CF1FF1F74F1FF1F0408002060
S31900006D7484F00F4038B500240025200000F008F82D18ADB258
S31900006D88641C302CF7DB3448C58031BD38B5040030216143AE
S31900006D9C304A55183635A97B202902DB2978032912D1FDF79D
S31900006DB091F8002803D0022805D002D30AE0288B32BD288A33
S31900006DC432BD91204000A100254A5118085A32BD002032BDFC
S31900006DD838B5FFF7CDFF20482149027852008A5AC388204CB9
S31900006DEC00259A4203D2002225786D1C00E0D21A257002818B
S31900006E002278042A06DB00784000085A181A80B200F001F868
S31900006E1431BD70B58CB000250A3086B201216846FFF782FD39
S31900006E28302468460019401E0078302141430A4A5118443158
S31900006E3C0A78202A08DA49886D18ADB208220321FDF726F978
S31900006E50B54203D2641EE4B2002CE6D10CB070BD30F2FF1F38
S31900006E6458FBFF1FC006002005080020704718B402E0401CCF
S31900006E78491C521E002A09D00B7804789C42F6D002D2002091
S31900006E8CC04302E0012000E0002012BC7047000080B52C48B8
S31900006EA00168802212050A4302602A480021016064228260AB
